:020000040000fa
:08000000820104000000000071
:020000040000fa
:040008007c01000077
:020000040000fa
:04000c007c01000073
:020000040000fa
:040010007c0100006f
:020000040000fa
:040014007c0100006b
:020000040000fa
:040018007c01000067
:020000040000fa
:04001c007c01000063
:020000040000fa
:040020007c0100005f
:020000040000fa
:040024007c0100005b
:020000040000fa
:040028007c01000057
:020000040000fa
:04002c007c01000053
:020000040000fa
:040030007c0100004f
:020000040000fa
:0400340012050000b1
:020000040000fa
:040038007c01000047
:020000040000fa
:04003c007c01000043
:020000040000fa
:040040007c0100003f
:020000040000fa
:040044007c0100003b
:020000040000fa
:040048007c01000037
:020000040000fa
:04004c00e2040000ca
:020000040000fa
:04005000f8040000b0
:020000040000fa
:040054007c0100002b
:020000040000fa
:040058007c01000027
:020000040000fa
:04005c007c01000023
:020000040000fa
:040060007c0100001f
:020000040000fa
:040064007c0100001b
:020000040000fa
:040068007c01000017
:020000040000fa
:04006c007c01000013
:020000040000fa
:040070007c0100000f
:020000040000fa
:040074007c0100000b
:020000040000fa
:040078007c01000007
:020000040000fa
:04007c007c01000003
:020000040000fa
:040080007c010000ff
:020000040000fa
:040084007c010000fb
:020000040000fa
:040088007c010000f7
:020000040000fa
:04008c007c010000f3
:020000040000fa
:040090007c010000ef
:020000040000fa
:040094007c010000eb
:020000040000fa
:040098007c010000e7
:020000040000fa
:04009c007c010000e3
:020000040000fa
:0400a0007c010000df
:020000040000fa
:0400a4007c010000db
:020000040000fa
:0400a8007c010000d7
:020000040000fa
:0400ac007c010000d3
:020000040000fa
:0400b0007c010000cf
:020000040000fa
:0400b4007c010000cb
:020000040000fa
:0400b8007c010000c7
:020000040000fa
:0400bc007c010000c3
:020000040000fa
:0400c0007c010000bf
:020000040000fa
:0400c4007c010000bb
:020000040000fa
:0400c8007c010000b7
:020000040000fa
:0400cc007c010000b3
:020000040000fa
:0400d0007c010000af
:020000040000fa
:0400d4007c010000ab
:020000040000fa
:0400d8007c010000a7
:020000040000fa
:040108007c01000076
:020000040000fa
:04010c007c01000072
:020000040000fa
:040110007c0100006e
:020000040000fa
:040114007c0100006a
:020000040000fa
:040118007c01000066
:020000040000fa
:04011c007c01000062
:020000040000fa
:040120007c0100005e
:020000040000fa
:040124007c0100005a
:020000040000fa
:040128007c01000056
:020000040000fa
:04012c007c01000052
:020000040000fa
:040130007c0100004e
:020000040000fa
:0401340012050000b0
:020000040000fa
:040138007c01000046
:020000040000fa
:04013c007c01000042
:020000040000fa
:040140007c0100003e
:020000040000fa
:040144007c0100003a
:020000040000fa
:040148007c01000036
:020000040000fa
:04014c00e2040000c9
:020000040000fa
:04015000f8040000af
:020000040000fa
:040154007c0100002a
:020000040000fa
:040158007c01000026
:020000040000fa
:04015c007c01000022
:020000040000fa
:040160007c0100001e
:020000040000fa
:040164007c0100001a
:020000040000fa
:040168007c01000016
:020000040000fa
:04016c007c01000012
:020000040000fa
:040170007c0100000e
:020000040000fa
:040174007c0100000a
:020000040000fa
:040178007c01000006
:020000040000fa
:04017c007c01000002
:020000040000fa
:040180007c010000fe
:020000040000fa
:040184007c010000fa
:020000040000fa
:040188007c010000f6
:020000040000fa
:04018c007c010000f2
:020000040000fa
:040190007c010000ee
:020000040000fa
:040194007c010000ea
:020000040000fa
:040198007c010000e6
:020000040000fa
:04019c007c010000e2
:020000040000fa
:0401a0007c010000de
:020000040000fa
:0401a4007c010000da
:020000040000fa
:0401a8007c010000d6
:020000040000fa
:0401ac007c010000d2
:020000040000fa
:0401b0007c010000ce
:020000040000fa
:0401b4007c010000ca
:020000040000fa
:0401b8007c010000c6
:020000040000fa
:0401bc007c010000c2
:020000040000fa
:0401c0007c010000be
:020000040000fa
:0401c4007c010000ba
:020000040000fa
:0401c8007c010000b6
:020000040000fa
:0401cc007c010000b2
:020000040000fa
:0401d0007c010000ae
:020000040000fa
:0401d4007c010000aa
:020000040000fa
:0401d8007c010000a6
:020000040000fa
:100200008a1f78008b1f780000000600910188008b
:10021000800478000000eb001a003700e2844400fc
:1002200032a0b4009905ba00e284440032a0b400c0
:100230009906ba00e284440032a0b4000006eb0044
:10024000476fde00fd07b200636ce10003003a0077
:10025000ebff07000000eb000a003700606ce100d4
:1002600004003a00005deb008b05e900fdff3e0055
:10027000040037006168e100010032000086eb00f5
:100280000b00070019c7ba001905ba000e04e000f8
:1002900003003a000a00e000e0ff3a000000060018
:1002a000fe07b2009e0188008a047800f5ff37003f
:1002b000395dba008b05e9000c003200295dba00f7
:1002c0008b05e900080032000c00e00003003a0052
:1002d000e284440032a0b400f5ff370019ddba0013
:1002e0008b05e900faff3a008904e800e184440044
:1002f00032a0b400000006000040da000000fe005a
:0403000000000500f4
:020000040000fa
:10030400af88200000f720000001880000000000f2
:100314009604020000000000a20402000000000095
:1003240062040200000000008004020000000000db
:10033400c822ef00d422ef000b0020000c002000a4
:100344002204020000000000c95320000000000045
:100354005002020000000000340620000458e100ae
:1003640053003200440620000458e1005a003200d1
:10037400540620000458e1006100320064062000a5
:100384000458e10068003200740620000458e100bb
:1003940070003200140620000458e1007900320095
:1003a400240620000458e100820032002356200075
:1003b400140320000458e10019013200a35d200059
:1003c400240320000458e10015013200836b20004f
:1003d400340320000458e10011013200036e2000b0
:1003e400440320000458e1000d013200c3702000d2
:1003f400540320000458e1000901320083752000f1
:10040400640320000458e100050132000379200050
:10041400740320000458e10001013200a37c200091
:10042400840320000458e100fd003200e380200032
:10043400940320000458e100f9003200f0ff2f007b
:1004440010088800c822ef00d422ef00c2ff370052
:100454008a1f780069552000f004020000000000a3
:1004640022040200000000000b057800f8040200da
:10047400000000002204020000000000da00200056
:10048400f804020000000000220402000000000042
:100494004f0578000b067800afff3700f004020028
:1004a400000000002204020000000000000006001a
:1004b40010dc20001008880000000000100020005c
:1004c400a0168800000000002204020000000000c2
:1004d4000b002000a0ff370010c420001008880083
:1004e4000000000020002000a0168800000000008a
:1004f40022040200000000000b00200096ff3700d9
:10050400b0ae200010088800000000003000200079
:10051400a016880000000000220402000000000071
:100524000b0020008cff3700d0a420000000000046
:10053400100888000000000040002000a016880079
:100544000000000022040200000000000b00200054
:1005540081ff37000021ef00e0922000000000003e
:10056400100888000000000050002000a016880039
:100574000000000022040200000000000b00200024
:1005840075ff37000021ef00e0822000000000002a
:10059400100888000000000060002000a0168800f9
:1005a4000000000022040200000000000b002000f4
:1005b40069ff37000021ef00907420000000000064
:1005c400100888000000000070002000a0168800b9
:1005d4000000000022040200000000000b002000c4
:1005e4005dff370005e1a9000021ef00c822ef00fc
:1005f4000000000000002000a01688000000000099
:1006040030040200000000001500200005e1a800ed
:100614006400370010dc200010088800000000008f
:1006240010002000a0168800000000002204020030
:1006340000000000150020005a00370010c42000fc
:10064400100888000000000020002000a016880088
:100654000000000022040200000000001500200039
:1006640050003700b0ae20001008880000000000e1
:1006740030002000a01688000000000022040200c0
:10068400000000001500200046003700d0a4200020
:10069400100888000000000040002000a016880018
:1006a40000000000220402000000000015002000e9
:1006b4003c0037000021ef00e09220000000000021
:1006c400100888000000000050002000a0168800d8
:1006d40000000000220402000000000015002000b9
:1006e400300037000021ef00e0822000000000000d
:1006f400100888000000000060002000a016880098
:100704000000000022040200000000001500200088
:10071400240037000021ef00907420000000000046
:10072400100888000000000070002000a016880057
:100734000000000022040200000000001500200058
:10074400180037000021ef00b0cf200000000000a7
:10075400100888000000000080002000a016880017
:100764000000000022040200000000001500200028
:100774000c0037000021ef0010c42000000000002e
:10078400100888000000000090002000a0168800d7
:1007940000000000220402000000000015002000f8
:1007a40000003700340620000428e10099ff3200dd
:1007b400440620000428e100a0ff32005406200073
:1007c4000428e100a7ff3200640620000428e100a9
:1007d400aeff3200740620000428e100b5ff3200a9
:1007e400140620000428e100beff32002406200085
:1007f4000428e100c7ff3200340720000428e10088
:10080400d0ff3200240720000428e100d9ff320081
:10081400e40620000428e10072ff32000000060014
:10082400b342ba00d4030200000000000504e00053
:10083400fbff3a00000000000b002000c6fe37005a
:10084400801f7800800c2000000000004404020097
:10085400000000004f00780000000600801f7800b0
:1008640040062000000000004404020000000000d4
:100874004f007800000006002e0709000000000069
:10088400000006003e040200000000000000e90031
:10089400fcff3a0000000600b0002000a010880011
:1008a40098c0a80098a0a9009880a9000e22ef0083
:1008b40000802800601088008d20a8000000060039
:1008c400b0002000a01088009940a8009920a90039
:1008d4009900a90098c0a80098a0a9009880a80031
:1008e4000e22ef0000802800601088000f42a8004c
:1008f4008d40a8008d20a800000006000421ef0010
:100904000021ef00f0ff2f00100888009580a90057
:1009140095a0a80095c0a8008460a9008c60a800d8
:1009240005e1a800000006000000eb0000077800c5
:100934000c000900002f78000007eb0000000600ff
:10094400c222ef0000000000c422ef0000000000fb
:10095400c0a2ef0000000000c822ef000000000069
:10096400ca22ef0000000000c622ef0000000000d1
:10097400a8a2ef00ce22ef0000000000d022ef007a
:1009840000000000cca2ef0000000000d422ef0021
:1009940000000000d622ef0000000000d222ef0089
:1009a40000000000e022ef0000000000e222ef005f
:1009b40000000000dea2ef000000000000000600be
:1009c400801f780090108000a016880080057800b1
:1009d4004f0078008520a900004006003945ba0080
:1009e4000a04e0000d003200070037000a04e000aa
:1009f4000a0032000f22af00feff37008a10880081
:100a04000a008000f9ff37000f22af00feff370015
:100a14008a1088000a008000f0ff370000000600fa
:0c0a24008460a900c802aa00004006007f
:020000040000fa
:100a30000200000003000000050000000a000000a2
:100a40000100000002000000040000000800000097
:100a500010000000200000004000000080000000a6
:100a60000001000000020000000400000008000077
:100a70000010000000000000486500006c6c0000e1
:100a80006f2c0000207900006f75000020610000cd
:100a90007265000020770000656c0000636f000045
:100aa0006d650000210d000000000000596f00007e
:100ab00075200000736500006e7400003a2000008d
:100ac0000d000000636e00006e6e00006e6e000090
:100ad000656e0000616e0000656e0000616e0000d2
:100ae000646e00006e6e00006e6100006e610000ba
:100af0006e6600006e6e0000656e0000636e0000a2
:100b00006e6e0000646e0000676e00006e64000090
:100b10006e6600006e6e00006e6600006e6700007c
:100b20006e6e0000656e00006e6e00006e6100006b
:100b30006e6e0000656e0000666e0000676e00005d
:100b4000666e0000616e0000666e0000676e000059
:100b50006e6600006e6700006e6100006e6e000041
:100b60006e6e0000616e00006e6e0000616e00002f
:100b7000666e00006e6100006e6400006e6300002f
:100b80006e6e0000656e0000646e0000636e000013
:100b90006e6e00006e6500006e6e00006e650000f7
:100ba0006e6100006e6500006e6100006e64000002
:100bb00000000000636e0000636e0000636e0000c2
:100bc000666e0000616e00006e6300006e630000e0
:100bd0006e6300006e6600006e6100006e6e0000c5
:100be000666e0000666e0000656e0000656e0000b7
:100bf000646e0000646e0000636e00006e630000af
:100c00006e6300006e6300006e6500006e6700009a
:100c10006e6e0000636e0000636e0000636e000085
:100c2000656e0000676e0000736e0000726e00005b
:100c3000736e0000626e0000616e0000676e00005f
:100c4000666e00006e670000676e0000676e000051
:100c5000636e0000636e0000656e0000656e00004c
:100c6000676700006e650000656500006e67000044
:100c7000676e0000616e0000676e0000666e000027
:100c8000656e0000646e0000666600006e64000021
:100c9000646e0000676700006e6700006e6200000f
:100ca0006e6200006e6400006e6400006e660000fc
:100cb000666e0000646400006e670000676e0000ee
:100cc000616e0000676e0000666e0000656e0000d9
:100cd000646e000063630000636e00006e630000da
:100ce0006e6300006e6300006e6600006e610000bf
:100cf0006e6e0000636e0000636e0000636e0000a5
:100d0000666e0000616e00006e6600006e66000098
:100d10006e6500006e6500006e6400006e64000089
:100d20006e6300006e6e0000636e0000636e000074
:100d3000636e0000656e0000676e00006e63000069
:100d40006e6300006e6300006e6500006e67000059
:100d50006e7300006e7200006e7300006e62000021
:100d60006e6100006e6700006e660000000000000b
:100d7000616e0000656e0000676e0000676e000027
:100d8000666e0000666e0000616e00006e6e000010
:100d90006e6e0000676e0000646e0000626e000000
:100da000616e0000676e0000636e00006e6e0000f2
:100db000636e0000626e0000676e000000000000bd
:100dc000656e0000656e0000636e00006e650000d9
:100dd0006e6500006e6700006e6600006e6e0000bb
:100de000666e0000676e00006e6600006e660000b2
:100df0006e6e0000656e00006e6500006e6e000095
:100e0000636e00006e6500006e6300006e6400009b
:100e10006e6200006e000000636e0000636e0000f2
:100e20006e6700006e6700006e6e0000616e00006d
:100e3000616e00006e6700006e6e0000666e00005e
:100e4000666e00006e6500006e6500006e6e00004c
:100e5000646e0000646e00006e6300006e6e000041
:100e60006e6700006e6700006e6e0000666e000028
:100e7000666e00006e6500006e6500006e6e00001c
:100e8000646e00006e6e0000676e0000676e00000a
:100e90006e6600006e6600006e6e0000656e0000fb
:100ea000656e00006e6e0000646e00006e00000053
:100eb000616e0000626e00006e6e0000616e0000e8
:100ec000626e0000666e00006e6e0000666e0000ce
:100ed000676e0000646e0000626e0000666e0000c7
:100ee0006e6e0000616e0000616e0000626e0000b8
:100ef0006e6e0000616e0000626e0000666e0000a3
:100f00006e6e0000666e0000676e0000646e00008a
:100f1000626e0000666e00006e610000000000005e
:100f2000676e0000676e00006e6100006e67000073
:100f30006e6300006e6e0000626e00006e6e000058
:100f4000676e0000676e00006e6100006e6e00004c
:100f5000676e0000646e0000636e00006e6e00003d
:100f6000636e0000656e00006e6700006e65000035
:100f7000636e00006e6200006e6100006e6600002d
:100f80006e6e0000656e0000636e0000646e00000f
:100f900000000000636e0000636e0000616e0000e0
:100fa0006e6200006e6700006e6300006e630000fa
:100fb0006e6100006e6e0000626e00006e670000e1
:100fc0006e6300006e6300006e6100006e6e0000d4
:100fd000626e0000676e0000666e0000646e0000c6
:100fe000646e00006e6200006e6200006e620000bf
:100ff0006e6200006e6100006e6700006e660000a9
:101000006e6400006e6400006e6e0000646e00008e
:10101000656e0000666e000000000000656e000056
:10102000656e00006e6500006e6400006e6e00006c
:10103000656e0000626e00006e6400006e6300006a
:101040006e6e0000616e00006e6e0000636e000048
:10105000656e0000616e00006e6200006e6e000042
:10106000656e0000676e0000626e00006e63000037
:101070006e6e0000656e0000656e0000646e00001c
:101080006e6500006e6400006e6500006e64000016
:101090006e6500006e6200006e6400006e6300000a
:1010a0006e6100006e6e00006e6300006e650000f1
:1010b0006e6100006e6e0000626e00006e6e0000d9
:1010c000656e0000636e0000626e00006e610000dd
:1010d0006e6e00006e6500006e6400006e650000bc
:1010e0006e6400006e6500006e6200006e640000b9
:1010f0006e6300006e6e0000616e00006e6e000098
:10110000626e0000636e0000646e00006e65000099
:101110006e6e00006e6700006e6600006e65000077
:041120006e0000005d
:020000040000fa
:101124000a0800008000000000000000800f00009a
:101134008000000000000000000800000a00000019
:081144000000000000000000a3
:020000040000fa
:0200000401f009
:04000000e0b9000063
:020000040000fa
:0200000401f009
:04000400ff7f00007a
:020000040000fa
:0200000401f009
:04000800eeff000007
:020000040000fa
:0200000401f009
:04001400ffff0000ea
:00000001FF
